:100000000C9434000C9449000C9449000C94490061
:100010000C9449000C9449000C9449000C9449003C
:100020000C9449000C9449000C9449000C9449002C
:100030000C9449000C9449000C9449000C9449001C
:100040000C9449000C9449000C9449000C9449000C
:100050000C9449000C9449000C9449000C944900FC
:100060000C9449000C94490011241FBECFEFD8E036
:10007000DEBFCDBF11E0A0E0B1E0E6E2F1E002C0FA
:1000800005900D92A230B107D9F70E944B000C9455
:1000900091000C9400008EE384B98FEF85B942E0A3
:1000A00034E028E090E180E245B95FEF63ED70E372
:1000B000515060407040E1F700C0000055B115B8E4
:1000C00035B95FEF63ED70E3515060407040E1F788
:1000D00000C0000055B115B825B95FEF63ED70E3BE
:1000E000515060407040E1F700C0000055B115B8B4
:1000F00095B95FEF63ED70E3515060407040E1F7F8
:1001000000C0000055B115B885B95FEF63ED70E32D
:10011000515060407040E1F700C0000055B115B883
:06012000C3CFF894FFCFED
:020126000000D7
:00000001FF
